:100000000C943B000C9458000C9458000C9458002D
:100010000C9458000C9458000C9458000C94580000
:100020000C9458000C9458000C9458000C945800F0
:100030000C9458000C9458000C9458000C945800E0
:100040000C9458000C9458000C9458000C945800D0
:100050000C9458000C9458000C9458000C945800C0
:100060000C9458000C9458009901A001A701B1010B
:10007000BB01C501CF0111241FBECFEFD8E0DEBF09
:10008000CDBF11E0A0E0B1E0E6EAF4E002C00590E7
:100090000D92A63BB107D9F721E0A6EBB1E001C074
:1000A0001D92A73BB207E1F70E9458010C94510240
:1000B0000C9400001092C50087E68093C40088E18C
:1000C0008093C10086E08093C20008958AB18C6D50
:1000D0008AB984B1836084B98AB183728AB984B1E0
:1000E0008C7F84B928E040E060E082E50E948101D5
:1000F0000E945A0078940895882324F495B1916061
:1001000095B903C095B19E7F95B986FF04C095B19E
:10011000926095B903C095B19D7F95B985FF04C0E4
:100120009BB194609BB903C09BB19B7F9BB984FF3B
:1001300004C09BB198609BB903C09BB1977F9BB9EA
:1001400083FF04C09BB190619BB903C09BB19F7EAC
:100150009BB982FF04C09BB190629BB903C09BB165
:100160009F7D9BB981FF04C09BB190649BB903C084
:100170009BB19F7B9BB980FF04C08BB180688BB91A
:1001800008958BB18F778BB908959091C00095FF3A
:10019000FCCF8093C6000895CF93DF93EC0103C09A
:1001A00021960E94C50088818111FACFDF91CF91FD
:1001B00008951F93CF93DF93182FC7E0D0E010C0AE
:1001C000812F90E00C2E02C0959587950A94E2F756
:1001D00080FF02C081E301C080E30E94C500219737
:1001E000DD2374F788E091E00E94CC00DF91CF918D
:1001F0001F9108950F931F93CF93DF9300D000D0EA
:10020000CDB7DEB719821A821B821C8200E0809172
:10021000C0008823E4F71091C600812F0E94C5001A
:100220001B32C1F180ED810F8A3050F4033040F46D
:10023000E1E0F0E0EC0FFD1FE00FF11D10830F5F18
:10024000183729F71EC085B18B7F85B988E70E94D2
:10025000E9012FEF84E39CE0215080409040E1F7DA
:1002600000C000000E94EB018093B6010E94C5000F
:1002700081E60E94C50085B1846085B90F5F1F4F7C
:1002800002C000E010E003301105ECF280E091E0E4
:100290000E94CC00CE0101960E94F60199270F9092
:1002A0000F900F900F90DF91CF911F910F910895B4
:1002B000CF93DF9300D000D0CDB7DEB70E946600A9
:1002C0008BE091E00E94CC0088E491E00E94CC0099
:1002D00087E791E00E94CC000E94FA00182F4AE0C4
:1002E000BE016F5F7F4F90E00E94140286EA91E0AA
:1002F0000E94CC00812F0E94D900812F0E947C0097
:10030000DFCFE82F84FF55C084B18C6284B984B1FB
:100310008F7E84B98CB580618CBDE7708E2F90E0A4
:100320008730910508F04EC0FC01EC5CFF4F0C9447
:10033000F0018CB58C7F8CBD8DB581608DBD42C0C8
:100340008CB58C7F8CBD8DB58E7F8DBD3BC08CB543
:1003500081608CBD8CB58D7F8CBD8DB581608DBD70
:1003600031C08CB581608CBD8CB58D7F8CBD8DB559
:100370008E7F8DBD27C08CB58E7F8CBD8CB5826085
:100380008CBD8DB581608DBD1DC08CB58E7F8CBD43
:100390008CB582608CBD8DB58E7F8DBD13C08CB544
:1003A00081608CBD8CB582608CBD8DB58E7F8DBD1E
:1003B00009C084B1837D84B984B1806184B98CB56E
:1003C0008F7E8CBD8CB5462B242B282B20642CBD16
:1003D00008958EBD08950DB407FEFDCF8EB5089526
:1003E000EE0FFF1F0590F491E02D0994FC01882782
:1003F0009927E89421912032E9F3293010F02E302A
:10040000C8F32B3241F02D3239F4689404C00E94B5
:100410001F02820F911D219120532A30C0F31EF438
:10042000909581959F4F0895BB274A3031F49923C9
:1004300022F4BDE2909581959F4F0C9428027AE0BA
:10044000979F902D879F802D910D11240895BB2794
:10045000FB015527AA27880F991FAA1FA41710F080
:10046000A41B83955051B9F7A05DAA3308F0A95D8C
:10047000A193009779F7B111B1931192CB010C942C
:100480004102DC01FC01672F71917723E1F732977C
:1004900004C07C916D9370836291AE17BF07C8F35F
:0604A0000895F894FFCF5F
:1004A600200D0A706F7431200D0A00496E74726F48
:1004B6006475636520756E206E756D65726F207349
:1004C60065677569646F20646520272B272D207367
:1004D6006920717569657265732073752062696E2E
:1004E6006172696F3A0D0A00496E74726F647563C2
:1004F6006520756E612027782720736920717569DC
:100506006572657320736162657220656C20706F19
:100516007420313A0D0A00496E74726F6475636512
:1005260020756E61202763272073692071756965C0
:1005360072657320736162657220656C20706F74DA
:1005460020323A0D0A00456E2062696E6172696F4B
:060556003A2030620000B3
:00000001FF
